:1000000071C000008FC000008DC000008BC00000D8
:1000100089C0000087C0000085C0000083C00000C8
:1000200081C000007FC000007DC000007BC00000D8
:1000300079C0000077C0000075C0000073C00000E8
:1000400071C000006FC000006DC000006BC00000F8
:1000500069C0000067C0000065C0000063C0000008
:1000600061C000005FC000005DC000005BC0000018
:1000700059C0000057C0000055C0000053C0000028
:1000800051C000004FC000004DC000004BC0000038
:10009000C8C6000047C0000045C0000043C00000C3
:1000A00041C000003FC000003DC000003BC0000058
:1000B00039C0000037C0000035C0000033C0000068
:1000C00031C000002FC000002DC00000D4C60000C9
:1000D00029C0000027C0000025C0000023C0000088
:1000E00021C0000011241FBECFEFD1E2DEBFCDBF83
:1000F00000E00CBF12E0A0E0B2E0E8EAF1E100E0CD
:100100000BBF02C007900D92A430B107D9F723E0CE
:10011000A4E0B2E001C01D92AB31B207E1F749D3D0
:100120000C94D2086DCF3E9A18B80895109221020F
:10013000882339F081E090E09093090280930802CF
:100140000895109209021092080208951092200258
:100150002D980895109209021092080208958FEACE
:1001600090E06ED4A59A83E090E09093090280938A
:100170000802089590917C00907F282F2770922B81
:1001800090937C0090917B00977F8870892B80935F
:100190007B0080917A00806480937A0080917A005D
:1001A00086FDFCCF8091790090E008958091000257
:1001B000E1DFBC0180E090E0BDD660932A0270933D
:1001C0002B0280932C0290932D0220E030E040EF30
:1001D00052E459D718166CF4809102018F7D8093F8
:1001E000020125E030E041E06FEA70E08BE490E04E
:1001F00007C48FEA90E024D480910201806280934A
:100200000201089560E085E9CCD560E082E0C9D5BF
:1002100060E087E0C6D560E08DE0C3D580E0EAD538
:10022000823001F560E080E090E0CED58093050259
:1002300060E081E090E0C8D58093040290910502CF
:1002400090FD02C0882371F082E090E09093090253
:100250008093080225E030E041E06AEA70E082E342
:1002600090E0CEC30895882309F48BC2CBDF809140
:10027000080290910902009709F09AC197DF8091D6
:10028000210281110BC025E030E041E066E970E019
:100290008CED95E0B5D381E08093210281E0AAD571
:1002A0008A3008F48EC061E080E090E08DD590E067
:1002B00090931F0280931E0261E081E090E084D55C
:1002C00090E090931D0280931C0220E030E030917A
:1002D0001E02822B932B909329028093280261E0C7
:1002E00082E090E071D590E090931B0280931A0217
:1002F00061E083E090E068D590E0909319028093EC
:10030000180220E030E030911A02822B932B909358
:1003100027028093260261E084E090E055D590E0CA
:10032000909317028093160261E085E090E04CD52F
:1003300090E0909315028093140220E030E0309119
:100340001602822B932B909325028093240261E066
:1003500086E090E039D590E09093130280931202EA
:1003600061E087E090E030D590E0909311028093B7
:10037000100220E030E030911202822B932B9093F8
:1003800023028093220261E088E090E01DD590E096
:1003900090930F0280930E0261E089E090E014D503
:1003A00090E090930D0280930C0220E030E03091B9
:1003B0000E02822B932B90930B0280930A0281E012
:1003C00025D56091260270912702CB01439687972D
:1003D00028F410922702109226024AC0072E000C21
:1003E000880B990BA9D525E83BEE4DE751E44FD694
:1003F00070D5613D27E072072CF47093270260935B
:10040000260206C08FEC97E0909327028093260285
:1004100080912602909127028033984F34F481E333
:1004200098EF909327028093260220912602309124
:100430002702C90144978C3B974040F486E698E038
:10044000821B930B90932702809326022091260211
:1004500030912702C9018153984F8C3B974040F45B
:100460008AE997EF821B930B9093270280932602D1
:100470006091280270912902CB014396879720F55D
:100480001092290210922802809126029091270250
:10049000853191054CF08EE591E09093290280938F
:1004A000280281E090E00BC08C3E9F4FA4F58EE5C2
:1004B00091E090932902809328028FEF9FEF909311
:1004C00027028093260227C0072E000C880B990B69
:1004D00033D520E030E040E850E4D9D5FAD4653F88
:1004E00041E074072CF4709329026093280206C03F
:1004F00084EF91E090932902809328028091280252
:10050000909129028C309E4F34F48CE09EEF9093B2
:10051000290280932802609126027091270280911F
:10052000280290912902ADD1809124029091250258
:10053000873991051CF08DEF9FEF05C08D37910530
:100540001CF483E090E042D3809122029091230238
:100550008D3791051CF483E090E005C08739910543
:100560001CF08DEF9FEF90D380910A0290910B02C7
:10057000019709F006C180912002811102C180918A
:10058000060290910702019690930702809306025B
:1005900006970CF0E4C02D9A25E030E041E066EAD1
:1005A00070E084E690E02CD281E0809320020895F0
:1005B0008130910509F0D5C0F9DD809121028111CA
:1005C0000BC025E030E040E066E970E08CED95E09E
:1005D00017D281E08093210281E00CD4893008F4A5
:1005E0005FC061E082E090E0EFD390E090931B0267
:1005F00080931A0261E083E090E0E6D390E090936C
:1006000019028093180220E030E030911A02822B08
:10061000932B909327028093260261E084E090E080
:10062000D3D390E0909317028093160261E085E0A7
:1006300090E0CAD390E0909315028093140220E0DA
:1006400030E030911602822B932B909325028093F9
:10065000240261E086E090E0B7D390E0909313022B
:100660008093120261E087E090E0AED390E0909337
:1006700011028093100220E030E030911202822BB0
:10068000932B909323028093220261E088E090E014
:100690009BD390E090930B0280930A0281E0B6D343
:1006A0008091260290912702843191056CF48D3E51
:1006B0004FEF9407A4F01092270210922602109296
:1006C0002902109228021AC04497C1F08EE591E0E9
:1006D000909329028093280281E090E00BC08C3E29
:1006E0009F4F64F48EE591E0909329028093280255
:1006F0008FEF9FEF9093270280932602609126024E
:10070000709127028091280290912902BAD080919D
:10071000240290912502873991051CF08DEF9FEFFF
:1007200005C08D3791051CF483E090E04FD2809195
:100730002202909123028D3791051CF483E090E012
:1007400005C0873991051CF08DEF9FEF9DD28091F8
:100750000A0290910B02019711F42D9A08952D9899
:1007600008958230910531F421DD60E070E080E78A
:100770009EEF06C0039729F460E070E080E090E00F
:1007800080C0089587B1807F87B9EAE7F0E0808173
:1007900087608083ACE7B0E08C9180648C938C910F
:1007A00080628C9380818068808380818064808374
:1007B00008959D9AE1E0F1E0808180628083259A2E
:1007C0007AD0B1DCDFDFCED1789461E080E0BAD2BC
:1007D0008AD00CD021E043E351E06AE070E080E091
:1007E00090E08ED0B6D180E090E008953D9A459893
:1007F0002FE986E891E0215080409040E1F700C069
:100800000000459AEFE7FAE126E0E150F040204091
:10081000E1F700C0000083E04598E3EDF0E3319795
:10082000F1F700C00000459AE3EDF0E33197F1F7EE
:1008300000C00000815081F760E081E083D260E079
:1008400080E8AFD287E893E10197F1F700C000009C
:1008500060E081E8A6D260E089E0A3D2E7EAF1E6B1
:100860003197F1F700C0000060E082E06BD260E0F9
:1008700082E897D287E893E10197F1F700C0000082
:1008800008950F931F93CF93DF93182F092FEB0138
:1008900060E089E886D260E0802F83D260E0812F1B
:1008A00080D260E08D2F7DD260E08C2FDF91CF91E0
:1008B0001F910F9176C214BC85B5856085BD16BCAD
:1008C0001092B4021092B302089586B58C3950F09C
:1008D0008091B3029091B40201969093B4028093F8
:1008E000B30216BC08958091B3029091B402909324
:1008F0007202809371029093B6028093B5020895BC
:10090000DC0190912E02983090F488E0989FF001DD
:100910001124ED58FD4FB383A2837183608381E07E
:1009200084835683458327839F5F90932E02089587
:100930007F928F929F92AF92BF92CF92DF92EF926F
:10094000FF920F931F93CF93DF938091B302909107
:10095000B40220917102309172026C01C21AD30A62
:100960009093720280937102C3E7D2E0AA24AA9402
:10097000BA2CE12CF12C8C81882339F10A811B815E
:100980000C191D091B830A830115110559F4E11483
:10099000F104C9F4ED80FE807F80888199819B837A
:1009A0008A8311C0B50180E090E0C4D24B015C01A4
:1009B000B801110F880B990BBDD2A5019401F7D294
:1009C0008DD25B0102C0A12CB12C289682E0C33BE2
:1009D000D80789F6E114F10421F0872D90E0F701A2
:1009E0001995C501DF91CF911F910F91FF90EF9065
:1009F000DF90CF90BF90AF909F908F907F900895A1
:100A0000A7EBB2E0E0E0F0E012965C911297511192
:100A100011C053E0EE0FFF1F5A95E1F7E954FD4F67
:100A20009183808374836383458381E082833783EA
:100A30002683089531961896E830F10529F7089530
:100A4000E7EBF2E0A7EFB2E0238134812817390702
:100A500011F4128208C011962D913C9112978217C1
:100A6000930709F41C923896149622E0E73FF207A8
:100A700059F708954091B3025091B4025093B602D1
:100A80004093B502A7EFB2E047E153E0E0E0F0E0C9
:100A90003C91332351F0009741F01196ED91FC9178
:100AA000129713962C9113971C9214964A175B0772
:100AB00079F7309729F0F894822F90E0199578947F
:100AC0000895CF93DF932091B3023091B4026091E7
:100AD000B5027091B602E901C61BD70B3093B6027E
:100AE0002093B502A7EBB2E067EF72E0E0E0F0E040
:100AF00012962C9112972223F1F00097E1F01696AE
:100B00002D913C91179728173907A8F42D913C9106
:100B100011972C1B3D0B11963C932E931216130626
:100B200054F01396ED91FC91149715964C911597EE
:100B300012961C92129718966A177B07C9F630977F
:100B400029F0F894842F90E019957894DF91CF9153
:100B50000895BBDEEDDEEC010097D9F3B2DFCE01E4
:100B600089DFF7CF8DB180638DB98EB18F7C8EB95F
:100B70001092950010929400A0E9B0E01C92E1E977
:100B8000F0E0108289E28C9380818361808384EC21
:100B900099E0909399008093980083EC90E0909373
:100BA0001A03809319032BEA30E030931803209343
:100BB000170390939D0080939C0080911703909160
:100BC000180390939B0080939A000895CF92DF9230
:100BD000EF92FF92CF93DF93EC01BC01990F880B4A
:100BE000990BAAD16B017C0120E030E040EA50E48F
:100BF0004AD2181664F020E030E040EA50ECC70119
:100C0000B60163D187FF05C0CBEFDFEF02C0C5E0BF
:100C1000D0E08091190390911A03C80FD91FBE012B
:100C20000D2E000C880B990B87D16B017C0120E005
:100C300030E046E953E427D218161CF48CE291E028
:100C400010C020E030E04AE852E4C701B6013DD1CF
:100C500087FD05C0D0931A03C093190306C085E42D
:100C600090E090931A038093190380911903909157
:100C70001A0390939D0080939C00DF91CF91FF9089
:100C8000EF90DF90CF900895CF92DF92EF92FF9296
:100C9000CF93DF93EC01BC01990F880B990B4CD1DA
:100CA0006B017C0120E030E040EA50E4ECD1181602
:100CB00064F020E030E040EA50ECC701B60105D115
:100CC00087FF05C0CBEFDFEF02C0C5E0D0E0809129
:100CD000170390911803C80FD91FBE010D2E000CE9
:100CE000880B990B29D16B017C0120E030E046E9AB
:100CF00053E4C9D118161CF48CE291E010C020E036
:100D000030E04AE852E4C701B601DFD087FD05C0F4
:100D1000D0931803C093170306C085E490E0909326
:100D200018038093170380911703909118039093F1
:100D30009B0080939A00DF91CF91FF90EF90DF901E
:100D4000CF900895833030F4E82FF0E0EF5FFD4F4F
:100D5000808102C087E690E0662319F0613089F057
:100D600008951092CD008093CC0082E08093C8005B
:100D700088E98093C90086E08093CA0010925002EF
:100D8000089510922F021092D5008093D40082E033
:100D90008093D00088E98093D10086E08093D200D0
:100DA0000895662319F0613041F008959091C800CC
:100DB00095FFFCCF8093CE0008959091D00095FFD1
:100DC000FCCF8093D6000895662319F0613041F07E
:100DD0000FC08032910564F4FC01EF5AFD4F06C04C
:100DE000803291052CF4FC01E05DFD4F8081089577
:100DF00080E00895882329F0813031F480912F021A
:100E0000089580915002089580E00895882319F094
:100E1000813021F0089510925002089510922F020F
:100E200008951F920F920FB60F9211240BB60F92D6
:100E30008F939F93EF93FF938091C80087FFFCCF20
:100E4000E0915002F0E08091CE00EF5AFD4F808398
:100E50008091500290E001968F7199278093500203
:100E6000FF91EF919F918F910F900BBE0F900FBE4E
:100E70000F901F9018951F920F920FB60F9211248A
:100E80000BB60F928F939F93EF93FF938091D000B7
:100E900087FFFCCFE0912F02F0E08091D600E05D6B
:100EA000FD4F808380912F0290E001968F719927EA
:100EB00080932F02FF91EF919F918F910F900BBE26
:100EC0000F900FBE0F901F90189590D008F481E0FE
:100ED000089504D06894B111D0C00895B3D088F0BB
:100EE0009F5790F0B92F9927B751A0F0D1F0660F16
:100EF000771F881F991F1AF0BA95C9F712C0B13031
:100F000081F0BAD0B1E00895B7C0672F782F882755
:100F1000B85F39F0B93FCCF3869577956795B3956F
:100F2000D9F73EF490958095709561957F4F8F4FDE
:100F30009F4F0895E89409C097FB3EF490958095E3
:100F4000709561957F4F8F4F9F4F9923A9F0F92F8F
:100F500096E9BB279395F695879577956795B7950D
:100F6000F111F8CFFAF4BB0F11F460FF1BC06F5FF3
:100F70007F4F8F4F9F4F16C0882311F096E911C005
:100F8000772321F09EE8872F762F05C0662371F026
:100F900096E8862F70E060E02AF09A95660F771F3A
:100FA000881FDAF7880F9695879597F90895990F16
:100FB000BB0B550FAA0BE0E8FEEF16161706E80765
:100FC000F90770F012161306E407F50760F0BA1778
:100FD00054F031F42617370748075907A7951BF433
:100FE000B901CA01BA2FB69597950895990F0008CF
:100FF000550FAA0BE0E8FEEF16161706E807F907EB
:10100000C0F012161306E407F50798F0621B730B85
:10101000840B950B39F40A2661F0232B242B252B06
:1010200021F408950A2609F4A140A6958FEF811DA9
:10103000811D089557FD9058440F551F59F05F3F8B
:1010400071F04795880F97FB991F61F09F3F79F0EA
:1010500087950895121613061406551FF2CF46956C
:10106000F1DF08C0161617061806991FF1CF8695EE
:101070007105610508940895E894BB2766277727D2
:10108000CB0197F90895B2DF08F48FEF08950BD0E4
:1010900078C069D028F06ED018F0952309F05AC0B6
:1010A0005FC01124EACFC6DFA0F3959FD1F3950F5F
:1010B00050E0551F629FF001729FBB27F00DB11DDC
:1010C000639FAA27F00DB11DAA1F649F6627B00D6C
:1010D000A11D661F829F2227B00DA11D621F739F55
:1010E000B00DA11D621F839FA00D611D221F749F63
:1010F0003327A00D611D231F849F600D211D822FAA
:10110000762F6A2F11249F5750408AF0E1F08823F0
:101110004AF0EE0FFF1FBB1F661F771F881F9150FD
:101120005040A9F79E3F510570F014C0A6CF5F3F15
:10113000ECF3983EDCF3869577956795B795F79530
:10114000E7959F5FC1F7FE2B880F911D96958795B8
:1011500097F9089597F99F6780E870E060E0089537
:101160009FEF80EC089500240A94161617061806BF
:101170000906089500240A9412161306140605069B
:101180000895092E0394000C11F4882352F0BB0F2C
:1011900040F4BF2B11F460FF04C06F5F7F4F8F4F8F
:0811A0009F4F0895F894FFCF62
:0411A8000CCF6733CE
:00000001FF
