S013000043534350726F6A656374332E737265632E
S113000071C000008EC000008CC000008AC00000D7
S113001088C0000086C0000084C0000082C00000C8
S113002080C000007EC000007CC000007AC00000D8
S113003078C0000076C0000074C0000072C00000E8
S113004070C000006EC000006CC000006AC00000F8
S113005068C0000066C0000064C0000062C0000008
S113006060C0000061C200005CC000005AC0000013
S113007058C0000056C0000054C0000052C0000028
S113008050C000004EC000004CC000004AC0000038
S113009048C0000046C0000044C0000042C0000048
S11300A040C000003EC000003CC000003AC0000058
S11300B038C0000036C0000034C0000032C0000068
S11300C030C000002EC000002CC000005EC2000042
S11300D028C0000026C0000024C0000022C0000088
S11300E020C0000011241FBECFEFD1E2DEBFCDBF80
S11300F000E00CBF12E0A0E0B2E0E4E3F6E000E0D0
S11301000BBF02C007900D92A430B107D9F722E0CB
S1130110A4E0B2E001C01D92AE3FB207E1F7FAD00D
S113012087C26ECF3E9A18B80895ECE7F0E090814C
S1130130907F282F2770922B9083EBE7F0E090813B
S1130140977F8870892B8083EAE7F0E08081806460
S11301508083808186FDFDCF8091790090E00895B1
S11301608F929F92AF92BF92CF92DF92EF92FF92C3
S1130170CF93DF93CEE1D0E080910002D6DF4091AF
S11301800A0250910B0260910C0270910D02480F0B
S1130190591F611D711D40930A0250930B02609315
S11301A00C0270930D0280910102BFDF40910602A0
S11301B0509107026091080270910902480F591F7B
S11301C0611D711D4093060250930702609308025B
S11301D07093090280910202A8DF409112025091AB
S11301E013026091140270911502480F591F611D8A
S11301F0711D409312025093130260931402709382
S113020015028091030291DFC0900E02D0900F027C
S1130210E0901002F0901102C80ED91EE11CF11CEE
S1130220C0920E02D0920F02E0921002F0921102DC
S1130230219709F0A1CF60910A0270910B0280917D
S11302400C0290910D020F2EFEE18F2E912CA12C09
S1130250B12CF02DA5019401C9D120930A02309349
S11302600B0240930C0250930D02609106027091B0
S113027007028091080290910902A5019401B6D168
S11302802093060230930702409308025093090218
S113029060911202709113028091140290911502E0
S11302A0A5019401A3D12093120230931302409329
S11302B0140250931502C701B601A501940196D109
S11302C020930E0230930F024093100250931102B8
S11302D0DF91CF91FF90EF90DF90CF90BF90AF90E0
S11302E09F908F90089587B1807F87B9EAE7F0E007
S11302F0808187608083ACE7B0E08C9180648C93CC
S11303008C9180628C9380818068808380818064FA
S1130310808308959D9AE1E0F1E08081806280838A
S1130320259A82D0FFDEDFDF1BDF17D060E070E0AC
S113033084E690E05DD081E0DFD08130E1F761E0D8
S113034080E090E0BED090E0909305028093040298
S113035081E0DFD080E090E008953D9A45982FE950
S113036086E891E0215080409040E1F700C0000011
S1130370459AEFE7FAE126E0E150F0402040E1F74A
S113038000C0000083E04598E3EDF0E33197F1F716
S113039000C00000459AE3EDF0E33197F1F700C0A7
S11303A00000815081F760E081E048D060E080E89F
S11303B073D087E893E10197F1F700C0000060E093
S11303C081E86AD060E089E067D0E7EAF1E6319736
S11303D0F1F700C0000060E082E030D060E082E825
S11303E05BD087E893E10197F1F700C0000008951E
S11303F00F931F93CF93DF93182F092FC62FD72F57
S113040060E089E849D060E0802F46D060E0812F29
S113041043D060E08D2F40D060E08C2F3DD0DF9141
S1130420CF911F910F91089514BC85B5856085BD4A
S113043016BC10929B0210929A020895882331F000
S1130440823011F087E603C083E301C08FEC66239A
S113045019F0613089F008951092C5008093C400AA
S113046082E08093C00088E98093C10086E0809395
S1130470C200109237020895109216021092D5000D
S11304808093D40082E08093D00088E98093D100E7
S113049086E08093D2000895662319F0613049F014
S11304A00895E0ECF0E0908195FFFDCF8093C600C5
S11304B00895E0EDF0E0908195FFFDCF8093D600A4
S11304C00895662319F0613049F010C08032910517
S11304D07CF4FC01E85CFD4F808108958032910535
S11304E04CF4FC01E95EFD4F8081089580E008959D
S11304F080E0089580E00895882319F0813021F088
S113050006C080913702089580911602089580E014
S11305100895882319F0813021F00895109237024C
S113052008951092160208951F920F920FB60F921B
S113053011240BB60F928F939F93EF93FF93E0ECEC
S1130540F0E080818823ECF7E0913702F0E08091BD
S1130550C600E85CFD4F80838091370290E00196ED
S11305608F719078992324F40197806E9F6F019680
S113057080933702FF91EF919F918F910F900BBE63
S11305800F900FBE0F901F9018951F920F920FB6E9
S11305900F9211240BB60F928F939F93EF93FF93B7
S11305A0E0EDF0E080818823ECF7E0911602F0E0C2
S11305B08091D600E95EFD4F80838091160290E021
S11305C001968F719078992324F40197806E9F6F20
S11305D0019680931602FF91EF919F918F910F9056
S11305E00BBE0F900FBE0F901F901895A1E21A2E0C
S11305F0AA1BBB1BFD010DC0AA1FBB1FEE1FFF1FC3
S1130600A217B307E407F50720F0A21BB30BE40B12
S1130610F50B661F771F881F991F1A9469F7609559
S11306207095809590959B01AC01BD01CF01089513
S1070630F894FFCF68
S10706340B0C090A94
S9030000FC
