:1000000071C000008EC000008CC000008AC00000DB
:1000100088C0000086C0000084C0000082C00000CC
:1000200080C000007EC000007CC000007AC00000DC
:1000300078C0000076C0000074C0000072C00000EC
:1000400070C000006EC000006CC000006AC00000FC
:1000500068C0000066C0000064C0000062C000000C
:1000600060C000002FC400005CC000005AC0000047
:1000700058C0000056C0000054C0000052C000002C
:1000800050C000004EC000004CC000004AC000003C
:1000900048C0000046C0000044C0000042C000004C
:1000A00040C000003EC000003CC000003AC000005C
:1000B00038C0000036C0000034C0000032C000006C
:1000C00030C000002EC000002CC0000025C400007D
:1000D00028C0000026C0000024C0000022C000008C
:1000E00020C0000011241FBECFEFD1E2DEBFCDBF84
:1000F00000E00CBF12E0A0E0B2E0E6E3FCE000E0CC
:100100000BBF02C007900D92A830B107D9F723E0CA
:10011000A8E0B2E001C01D92A331B207E1F705D219
:1001200088C56ECF3E9A18B8089590917C00907F54
:10013000282F2770922B90937C0090917B00977FC3
:100140008870892B80937B0080917A0080648093F3
:100150007A0080917A0086FDFCCF8091790090E052
:100160000895882309F408C180910002DEDF90938E
:1001700015028093140280910102D7DF909313023D
:100180008093120280910202D0DF90931902809333
:10019000180280910302C9DF909317028093160220
:1001A000959B0AC0809102018F7D8093020110927D
:1001B0000902109208020BC08091020180628093B4
:1001C000020181E090E090930902809308028091FF
:1001D00018029091190290930D0280930C02809165
:1001E00016029091170290930B0280930A0260917D
:1001F00014027091150280911E0290911F02681BDB
:10020000790B643171054CF46D3E2FEF72072CF0C1
:1002100010920F0210920E024AC0072E000C880B9B
:10022000990BD7D325E83BEE4DE751E455D49ED347
:10023000613D47E074072CF470930F0260930E0247
:1002400006C08FEC97E090930F0280930E0280918E
:100250000E0290910F028033984F34F481E398EFAF
:1002600090930F0280930E0220910E0230910F02A4
:10027000C90144978C3B974040F486E698E0821B86
:10028000930B90930F0280930E0220910E023091F7
:100290000F02C9018153984F8C3B974040F48AE983
:1002A00097EF821B930B90930F0280930E02609145
:1002B0001A0270911B028091120290911302681B26
:1002C000790B643171054CF46D3E8FEF78072CF09B
:1002D000109211021092100227C0072E000C880BFA
:1002E000990B77D320E030E040E850E4F5D33ED3DB
:1002F000653F21E072072CF47093110260931002A5
:1003000006C084EF91E090931102809310028091D7
:100310001002909111028C309E4F34F48CE09EEFCD
:10032000909311028093100261E080911102B7D284
:1003300061E080911002B3D261E080910F02AFD2F0
:1003400061E080910E02ABD261E080910D02A7D2F4
:1003500061E080910C02A3D261E080910B029FD2F8
:1003600061E080910A029BD261E08091090297D2FC
:1003700061E08091080293C208958F929F92AF929C
:10038000BF92CF92DF92EF92FF92CF93DF93CEE1B5
:10039000D0E080910002C9DE40911E0250911F0200
:1003A0006091200270912102480F591F611D711D3B
:1003B00040931E0250931F0260932002709321020B
:1003C00080910102B2DE40911A0250911B026091AD
:1003D0001C0270911D02480F591F611D711D409331
:1003E0001A0250931B0260931C0270931D028091AD
:1003F00002029BDE40912602509127026091280262
:1004000070912902480F591F611D711D40932602EA
:10041000509327026093280270932902809103026F
:1004200084DE8090220290902302A0902402B0905B
:100430002502880E991EA11CB11C80922202909266
:100440002302A0922402B0922502219709F0A1CFA5
:1004500060911E0270911F028091200290912102F2
:100460002EE1C22ED12CE12CF12CA7019601BFD395
:1004700020931E0230931F024093200250932102CA
:1004800060911A0270911B0280911C0290911D02D2
:10049000A7019601ACD320931A0230931B0240931C
:1004A0001C0250931D0260912602709127028091D8
:1004B000280290912902A701960199D32093260240
:1004C000309327024093280250932902C501B401BA
:1004D000A70196018CD320932202309323024093EC
:1004E000240250932502DF91CF91FF90EF90DF908F
:1004F000CF90BF90AF909F908F90089587B1807FED
:1005000087B9EAE7F0E0808187608083ACE7B0E0FC
:100510008C9180648C938C9180628C9380818068B4
:10052000808380818064808308959D9A8FEF84BB4F
:10053000E1E0F1E0808180628083259AEAE0F1E0E9
:100540008081808360D0EEDDD9DF17DF789461E0B1
:1005500080E076D170D00CD021E041EB50E06AE031
:1005600070E080E090E074D062D180E090E0089587
:100570003D9A45982FE986E891E0215080409040CF
:10058000E1F700C00000459AEFE7FAE126E0E1500C
:10059000F0402040E1F700C0000083E04598E3ED23
:1005A000F0E33197F1F700C00000459AE3EDF0E386
:1005B0003197F1F700C00000815081F760E081E0E1
:1005C0003FD160E080E86BD187E893E10197F1F7D4
:1005D00000C0000060E081E862D160E089E05FD1A6
:1005E000E7EAF1E63197F1F700C0000060E082E051
:1005F00027D160E082E853D187E893E10197F1F7D2
:1006000000C00000089514BC85B5856085BD16BC8A
:100610001092B0021092AF02089586B58C3950F056
:100620008091AF029091B00201969093B0028093B6
:10063000AF0216BC08958091AF029091B0029093E2
:100640006E0280936D029093B2028093B10208957E
:10065000DC0190912A02983090F488E0989FF00194
:100660001124E159FD4FB383A2837183608381E03C
:1006700084835683458327839F5F90932A0208953E
:100680007F928F929F92AF92BF92CF92DF92EF9222
:10069000FF920F931F93CF93DF938091AF029091BE
:1006A000B00220916D0230916E026C01C21AD30A21
:1006B00090936E0280936D02CFE6D2E0AA24AA94B2
:1006C000BA2CE12CF12C8C81882339F10A811B8111
:1006D0000C191D091B830A830115110559F4E11436
:1006E000F104C9F4ED80FE807F80888199819B832D
:1006F0008A8311C0B50180E090E069D14B015C01B3
:10070000B801110F880B990B62D1A50194019CD1FE
:1007100032D15B0102C0A12CB12C289682E0CF3AE5
:10072000D80789F6E114F10421F0872D90E0F70154
:100730001995C501DF91CF911F910F91FF90EF9017
:10074000DF90CF90BF90AF909F908F907F90089553
:100750004091AF025091B0025093B2024093B10267
:10076000A3EFB2E043E153E0E0E0F0E03C9133235B
:1007700051F0009741F01196ED91FC91129713966C
:100780002C9113971C9214964A175B0779F73097B0
:1007900029F0F894822F90E0199578940895CF93DA
:1007A000DF932091AF023091B0026091B10270915D
:1007B000B202E901C61BD70B3093B2022093B102FB
:1007C000A3EBB2E063EF72E0E0E0F0E012962C9170
:1007D00012972223F1F00097E1F016962D913C91AB
:1007E000179728173907A8F42D913C9111972C1BC6
:1007F0003D0B11963C932E931216130654F013964C
:10080000ED91FC91149715964C91159712961C92A8
:10081000129718966A177B07C9F6309729F0F89453
:10082000842F90E019957894DF91CF910895F5DEAB
:1008300027DFEC010097D9F3B2DFCE0189DFF7CFD4
:10084000833030F4E82FF0E0EC5FFD4F808102C090
:1008500087E690E0662319F0613089F008951092E0
:10086000C5008093C40082E08093C00088E9809333
:10087000C10086E08093C20010924C02089510924D
:100880002B021092D5008093D40082E08093D00098
:1008900088E98093D10086E08093D2000895662392
:1008A00019F0613041F008959091C00095FFFCCFA0
:1008B0008093C60008959091D00095FFFCCF80935F
:1008C000D60008951F920F920FB60F9211240BB607
:1008D0000F928F939F93EF93FF938091C00087FFB8
:1008E000FCCFE0914C02F0E08091C600E35BFD4F4D
:1008F000808380914C0290E001968F7199278093BC
:100900004C02FF91EF919F918F910F900BBE0F9032
:100910000FBE0F901F9018951F920F920FB60F9257
:1009200011240BB60F928F939F93EF93FF938091B7
:10093000D00087FFFCCFE0912B02F0E08091D60041
:10094000E45DFD4F808380912B0290E001968F71D2
:10095000992780932B02FF91EF919F918F910F9098
:100960000BBE0F900FBE0F901F90189504D0689487
:10097000B111ACC008958FD088F09F5790F0B92F77
:100980009927B751A0F0D1F0660F771F881F991FE4
:100990001AF0BA95C9F712C0B13081F096D0B1E023
:1009A000089593C0672F782F8827B85F39F0B93F33
:1009B000CCF3869577956795B395D9F73EF49095E6
:1009C0008095709561957F4F8F4F9F4F0895E89464
:1009D00009C097FB3EF490958095709561957F4F87
:1009E0008F4F9F4F9923A9F0F92F96E9BB27939535
:1009F000F695879577956795B795F111F8CFFAF445
:100A0000BB0F11F460FF1BC06F5F7F4F8F4F9F4F75
:100A100016C0882311F096E911C0772321F09EE8D3
:100A2000872F762F05C0662371F096E8862F70E039
:100A300060E02AF09A95660F771F881FDAF7880F13
:100A40009695879597F90895990FBB0B550FAA0BAB
:100A5000E0E8FEEF16161706E807F90770F0121621
:100A60001306E407F50760F0BA1754F031F42617BF
:100A7000370748075907A7951BF4B901CA01BA2FD0
:100A8000B6959795089557FD9058440F551F59F006
:100A90005F3F71F04795880F97FB991F61F09F3F6B
:100AA00079F087950895121613061406551FF2CF94
:100AB0004695F1DF08C0161617061806991FF1CFE4
:100AC00086957105610508940895E894BB2766270B
:100AD0007727CB0197F908950BD078C069D028F01B
:100AE0006ED018F0952309F05AC05FC01124EECFE4
:100AF000CADFA0F3959FD1F3950F50E0551F629F79
:100B0000F001729FBB27F00DB11D639FAA27F00D66
:100B1000B11DAA1F649F6627B00DA11D661F829F8D
:100B20002227B00DA11D621F739FB00DA11D621F72
:100B3000839FA00D611D221F749F3327A00D611D8F
:100B4000231F849F600D211D822F762F6A2F112471
:100B50009F5750408AF0E1F088234AF0EE0FFF1FC4
:100B6000BB1F661F771F881F91505040A9F79E3FFB
:100B7000510570F014C0AACF5F3FECF3983EDCF350
:100B8000869577956795B795F795E7959F5FC1F738
:100B9000FE2B880F911D9695879597F9089597F9E3
:100BA0009F6780E870E060E008959FEF80EC089513
:100BB00000240A941616170618060906089500243C
:100BC0000A9412161306140605060895092E0394B6
:100BD000000C11F4882352F0BB0F40F4BF2B11F42A
:100BE00060FF04C06F5F7F4F8F4F9F4F0895A1E25A
:100BF0001A2EAA1BBB1BFD010DC0AA1FBB1FEE1F97
:100C0000FF1FA217B307E407F50720F0A21BB30BE1
:100C1000E40BF50B661F771F881F991F1A9469F75D
:100C200060957095809590959B01AC01BD01CF01B9
:060C30000895F894FFCFC7
:080C36000B0C090ACF67330023
:00000001FF
